{
    "contractName": "MicroLending",
    "abi": [
        {
            "anonymous": false,
            "inputs": [
                {
                    "indexed": false,
                    "internalType": "address",
                    "name": "lender",
                    "type": "address"
                },
                {
                    "indexed": false,
                    "internalType": "uint256",
                    "name": "loanId",
                    "type": "uint256"
                },
                {
                    "indexed": false,
                    "internalType": "uint256",
                    "name": "amountFunded",
                    "type": "uint256"
                }
            ],
            "name": "LoanFunded",
            "type": "event"
        },
        {
            "anonymous": false,
            "inputs": [
                {
                    "indexed": false,
                    "internalType": "uint256",
                    "name": "loanId",
                    "type": "uint256"
                }
            ],
            "name": "LoanRepaid",
            "type": "event"
        },
        {
            "anonymous": false,
            "inputs": [
                {
                    "indexed": false,
                    "internalType": "address",
                    "name": "borrower",
                    "type": "address"
                },
                {
                    "indexed": false,
                    "internalType": "uint256",
                    "name": "amount",
                    "type": "uint256"
                },
                {
                    "indexed": false,
                    "internalType": "uint256",
                    "name": "deadline",
                    "type": "uint256"
                },
                {
                    "indexed": false,
                    "internalType": "string",
                    "name": "description",
                    "type": "string"
                }
            ],
            "name": "LoanRequested",
            "type": "event"
        },
        {
            "anonymous": false,
            "inputs": [
                {
                    "indexed": false,
                    "internalType": "uint256",
                    "name": "loanId",
                    "type": "uint256"
                },
                {
                    "indexed": false,
                    "internalType": "uint256",
                    "name": "amount",
                    "type": "uint256"
                }
            ],
            "name": "LoanSentToBorrower",
            "type": "event"
        },
        {
            "inputs": [
                {
                    "internalType": "uint256",
                    "name": "",
                    "type": "uint256"
                }
            ],
            "name": "loans",
            "outputs": [
                {
                    "internalType": "address payable",
                    "name": "borrower",
                    "type": "address"
                },
                {
                    "internalType": "uint256",
                    "name": "amountRequested",
                    "type": "uint256"
                },
                {
                    "internalType": "uint256",
                    "name": "amountFunded",
                    "type": "uint256"
                },
                {
                    "internalType": "bool",
                    "name": "fundraisingEnded",
                    "type": "bool"
                },
                {
                    "internalType": "bool",
                    "name": "isFunded",
                    "type": "bool"
                },
                {
                    "internalType": "bool",
                    "name": "isRepaid",
                    "type": "bool"
                },
                {
                    "internalType": "uint256",
                    "name": "repaymentAmount",
                    "type": "uint256"
                },
                {
                    "internalType": "string",
                    "name": "description",
                    "type": "string"
                },
                {
                    "internalType": "uint256",
                    "name": "fundraisingDeadline",
                    "type": "uint256"
                }
            ],
            "stateMutability": "view",
            "type": "function",
            "constant": true
        },
        {
            "inputs": [
                {
                    "internalType": "uint256",
                    "name": "_amount",
                    "type": "uint256"
                },
                {
                    "internalType": "uint256",
                    "name": "_durationInDays",
                    "type": "uint256"
                },
                {
                    "internalType": "string",
                    "name": "_description",
                    "type": "string"
                }
            ],
            "name": "requestLoan",
            "outputs": [],
            "stateMutability": "nonpayable",
            "type": "function"
        },
        {
            "inputs": [
                {
                    "internalType": "uint256",
                    "name": "_loanId",
                    "type": "uint256"
                }
            ],
            "name": "viewRepaymentAmount",
            "outputs": [
                {
                    "internalType": "uint256",
                    "name": "",
                    "type": "uint256"
                }
            ],
            "stateMutability": "view",
            "type": "function",
            "constant": true
        },
        {
            "inputs": [
                {
                    "internalType": "uint256",
                    "name": "_loanId",
                    "type": "uint256"
                }
            ],
            "name": "fundLoan",
            "outputs": [],
            "stateMutability": "payable",
            "type": "function",
            "payable": true
        },
        {
            "inputs": [
                {
                    "internalType": "uint256",
                    "name": "_loanId",
                    "type": "uint256"
                }
            ],
            "name": "endFundraising",
            "outputs": [],
            "stateMutability": "nonpayable",
            "type": "function"
        },
        {
            "inputs": [
                {
                    "internalType": "uint256",
                    "name": "_loanId",
                    "type": "uint256"
                }
            ],
            "name": "repayLoan",
            "outputs": [],
            "stateMutability": "payable",
            "type": "function",
            "payable": true
        },
        {
            "inputs": [
                {
                    "internalType": "uint256",
                    "name": "_loanId",
                    "type": "uint256"
                }
            ],
            "name": "getLendersForLoan",
            "outputs": [
                {
                    "components": [
                        {
                            "internalType": "address payable",
                            "name": "lenderAddress",
                            "type": "address"
                        },
                        {
                            "internalType": "uint256",
                            "name": "amountFunded",
                            "type": "uint256"
                        }
                    ],
                    "internalType": "struct MicroLending.Lender[]",
                    "name": "",
                    "type": "tuple[]"
                }
            ],
            "stateMutability": "view",
            "type": "function",
            "constant": true
        },
        {
            "inputs": [],
            "name": "getAllLoans",
            "outputs": [
                {
                    "components": [
                        {
                            "internalType": "address payable",
                            "name": "borrower",
                            "type": "address"
                        },
                        {
                            "internalType": "uint256",
                            "name": "amountRequested",
                            "type": "uint256"
                        },
                        {
                            "internalType": "uint256",
                            "name": "amountFunded",
                            "type": "uint256"
                        },
                        {
                            "internalType": "bool",
                            "name": "fundraisingEnded",
                            "type": "bool"
                        },
                        {
                            "internalType": "bool",
                            "name": "isFunded",
                            "type": "bool"
                        },
                        {
                            "internalType": "bool",
                            "name": "isRepaid",
                            "type": "bool"
                        },
                        {
                            "internalType": "uint256",
                            "name": "repaymentAmount",
                            "type": "uint256"
                        },
                        {
                            "internalType": "string",
                            "name": "description",
                            "type": "string"
                        },
                        {
                            "components": [
                                {
                                    "internalType": "address payable",
                                    "name": "lenderAddress",
                                    "type": "address"
                                },
                                {
                                    "internalType": "uint256",
                                    "name": "amountFunded",
                                    "type": "uint256"
                                }
                            ],
                            "internalType": "struct MicroLending.Lender[]",
                            "name": "lenders",
                            "type": "tuple[]"
                        },
                        {
                            "internalType": "uint256",
                            "name": "fundraisingDeadline",
                            "type": "uint256"
                        }
                    ],
                    "internalType": "struct MicroLending.Loan[]",
                    "name": "",
                    "type": "tuple[]"
                }
            ],
            "stateMutability": "view",
            "type": "function",
            "constant": true
        }
    ],
    "bytecode": "0x608060405234801561001057600080fd5b50611d2c806100206000396000f3fe60806040526004361061007b5760003560e01c8063d3602dc61161004e578063d3602dc61461010c578063d5b6836814610135578063e1ec3c6814610172578063fd8a5e9a146101b75761007b565b80630473e26014610080578063846b909a146100a9578063a5bfd16a146100c5578063ab7b1c89146100f0575b600080fd5b34801561008c57600080fd5b506100a760048036038101906100a2919061105a565b6101f4565b005b6100c360048036038101906100be919061105a565b61040d565b005b3480156100d157600080fd5b506100da610628565b6040516100e791906117c3565b60405180910390f35b61010a6004803603810190610105919061105a565b6108a8565b005b34801561011857600080fd5b50610133600480360381019061012e9190611083565b610b89565b005b34801561014157600080fd5b5061015c6004803603810190610157919061105a565b610caf565b60405161016991906118c5565b60405180910390f35b34801561017e57600080fd5b506101996004803603810190610194919061105a565b610d03565b6040516101ae9998979695949392919061168a565b60405180910390f35b3480156101c357600080fd5b506101de60048036038101906101d9919061105a565b610e30565b6040516101eb91906117a1565b60405180910390f35b600080828154811061022f577f4e487b7100000000000000000000000000000000000000000000000000000000600052603260045260246000fd5b906000526020600020906008020190508060000160009054906101000a900473ffffffffffffffffffffffffffffffffffffffff1673ffffffffffffffffffffffffffffffffffffffff163373ffffffffffffffffffffffffffffffffffffffff16146102d1576040517f08c379a00000000000000000000000000000000000000000000000000000000081526004016102c8906118a5565b60405180910390fd5b8060030160019054906101000a900460ff1615610323576040517f08c379a000000000000000000000000000000000000000000000000000000000815260040161031a906117e5565b60405180910390fd5b60018160030160006101000a81548160ff0219169083151502179055508060000160009054906101000a900473ffffffffffffffffffffffffffffffffffffffff1673ffffffffffffffffffffffffffffffffffffffff166108fc82600201549081150290604051600060405180830381858888f193505050501580156103ae573d6000803e3d6000fd5b5060018160030160016101000a81548160ff0219169083151502179055507fc4115ead3b5e642248f8bf4f8e001556161d59f98c392fcaf2e917d563b8eeed8282600201546040516104019291906118e0565b60405180910390a15050565b6000808281548110610448577f4e487b7100000000000000000000000000000000000000000000000000000000600052603260045260246000fd5b90600052602060002090600802019050806007015442111561049f576040517f08c379a000000000000000000000000000000000000000000000000000000000815260040161049690611805565b60405180910390fd5b80600101543482600201546104b49190611a1a565b11156104f5576040517f08c379a00000000000000000000000000000000000000000000000000000000081526004016104ec90611845565b60405180910390fd5b8060060160405180604001604052803373ffffffffffffffffffffffffffffffffffffffff16815260200134815250908060018154018082558091505060019003906000526020600020906002020160009091909190915060008201518160000160006101000a81548173ffffffffffffffffffffffffffffffffffffffff021916908373ffffffffffffffffffffffffffffffffffffffff160217905550602082015181600101555050348160020160008282546105b49190611a1a565b925050819055508060010154816002015414156105e95760018160030160016101000a81548160ff0219169083151502179055505b7f6929ef1beec776d26744c851d4e8c8d009ac33388f93115c125a631c0842056b33833460405161061c9392919061171e565b60405180910390a15050565b60606000805480602002602001604051908101604052809291908181526020016000905b8282101561089f5783829060005260206000209060080201604051806101400160405290816000820160009054906101000a900473ffffffffffffffffffffffffffffffffffffffff1673ffffffffffffffffffffffffffffffffffffffff1673ffffffffffffffffffffffffffffffffffffffff16815260200160018201548152602001600282015481526020016003820160009054906101000a900460ff161515151581526020016003820160019054906101000a900460ff161515151581526020016003820160029054906101000a900460ff161515151581526020016004820154815260200160058201805461074590611b97565b80601f016020809104026020016040519081016040528092919081815260200182805461077190611b97565b80156107be5780601f10610793576101008083540402835291602001916107be565b820191906000526020600020905b8154815290600101906020018083116107a157829003601f168201915b5050505050815260200160068201805480602002602001604051908101604052809291908181526020016000905b8282101561087e57838290600052602060002090600202016040518060400160405290816000820160009054906101000a900473ffffffffffffffffffffffffffffffffffffffff1673ffffffffffffffffffffffffffffffffffffffff1673ffffffffffffffffffffffffffffffffffffffff168152602001600182015481525050815260200190600101906107ec565b5050505081526020016007820154815250508152602001906001019061064c565b50505050905090565b60008082815481106108e3577f4e487b7100000000000000000000000000000000000000000000000000000000600052603260045260246000fd5b906000526020600020906008020190508060000160009054906101000a900473ffffffffffffffffffffffffffffffffffffffff1673ffffffffffffffffffffffffffffffffffffffff163373ffffffffffffffffffffffffffffffffffffffff1614610985576040517f08c379a000000000000000000000000000000000000000000000000000000000815260040161097c90611825565b60405180910390fd5b8060030160029054906101000a900460ff16156109d7576040517f08c379a00000000000000000000000000000000000000000000000000000000081526004016109ce90611885565b60405180910390fd5b80600401543414610a1d576040517f08c379a0000000000000000000000000000000000000000000000000000000008152600401610a1490611865565b60405180910390fd5b60008160010154905060008260040154905060005b8360060180549050811015610b2e576000846006018281548110610a7f577f4e487b7100000000000000000000000000000000000000000000000000000000600052603260045260246000fd5b90600052602060002090600202019050600084848360010154610aa29190611aa1565b610aac9190611a70565b90508160000160009054906101000a900473ffffffffffffffffffffffffffffffffffffffff1673ffffffffffffffffffffffffffffffffffffffff166108fc829081150290604051600060405180830381858888f19350505050158015610b18573d6000803e3d6000fd5b5050508080610b2690611bc9565b915050610a32565b5060018360030160026101000a81548160ff0219169083151502179055507f9a7851747cd7ffb3fe0a32caf3da48b31f27cebe131267051640f8b72fc4718684604051610b7b91906118c5565b60405180910390a150505050565b6000806001816001815401808255809150500390600052602060002090600802019050338160000160006101000a81548173ffffffffffffffffffffffffffffffffffffffff021916908373ffffffffffffffffffffffffffffffffffffffff1602179055508381600101819055506201518083610c079190611aa1565b42610c129190611a1a565b816007018190555081816005019080519060200190610c32929190610f3a565b50606460056064610c439190611a1a565b8260010154610c529190611aa1565b610c5c9190611a70565b81600401819055507f8d0f28b13b81d6cb2daa1e2558ffe46f372e0a47d938d38fa339bd67eff00829338260010154836007015485604051610ca19493929190611755565b60405180910390a150505050565b6000808281548110610cea577f4e487b7100000000000000000000000000000000000000000000000000000000600052603260045260246000fd5b9060005260206000209060080201600401549050919050565b60008181548110610d1357600080fd5b90600052602060002090600802016000915090508060000160009054906101000a900473ffffffffffffffffffffffffffffffffffffffff16908060010154908060020154908060030160009054906101000a900460ff16908060030160019054906101000a900460ff16908060030160029054906101000a900460ff1690806004015490806005018054610da790611b97565b80601f0160208091040260200160405190810160405280929190818152602001828054610dd390611b97565b8015610e205780601f10610df557610100808354040283529160200191610e20565b820191906000526020600020905b815481529060010190602001808311610e0357829003601f168201915b5050505050908060070154905089565b606060008281548110610e6c577f4e487b7100000000000000000000000000000000000000000000000000000000600052603260045260246000fd5b9060005260206000209060080201600601805480602002602001604051908101604052809291908181526020016000905b82821015610f2f57838290600052602060002090600202016040518060400160405290816000820160009054906101000a900473ffffffffffffffffffffffffffffffffffffffff1673ffffffffffffffffffffffffffffffffffffffff1673ffffffffffffffffffffffffffffffffffffffff16815260200160018201548152505081526020019060010190610e9d565b505050509050919050565b828054610f4690611b97565b90600052602060002090601f016020900481019282610f685760008555610faf565b82601f10610f8157805160ff1916838001178555610faf565b82800160010185558215610faf579182015b82811115610fae578251825591602001919060010190610f93565b5b509050610fbc9190610fc0565b5090565b5b80821115610fd9576000816000905550600101610fc1565b5090565b6000610ff0610feb8461193a565b611909565b90508281526020810184848401111561100857600080fd5b611013848285611b55565b509392505050565b600082601f83011261102c57600080fd5b813561103c848260208601610fdd565b91505092915050565b60008135905061105481611cdf565b92915050565b60006020828403121561106c57600080fd5b600061107a84828501611045565b91505092915050565b60008060006060848603121561109857600080fd5b60006110a686828701611045565b93505060206110b786828701611045565b925050604084013567ffffffffffffffff8111156110d457600080fd5b6110e08682870161101b565b9150509250925092565b60006110f6838361155c565b60408301905092915050565b600061110e838361158b565b905092915050565b61111f81611b0d565b82525050565b61112e81611b0d565b82525050565b61113d81611afb565b82525050565b600061114e8261198a565b61115881856119c5565b93506111638361196a565b8060005b8381101561119457815161117b88826110ea565b9750611186836119ab565b925050600181019050611167565b5085935050505092915050565b60006111ac8261198a565b6111b681856119d6565b93506111c18361196a565b8060005b838110156111f25781516111d988826110ea565b97506111e4836119ab565b9250506001810190506111c5565b5085935050505092915050565b600061120a82611995565b61121481856119e7565b9350836020820285016112268561197a565b8060005b8581101561126257848403895281516112438582611102565b945061124e836119b8565b925060208a0199505060018101905061122a565b50829750879550505050505092915050565b61127d81611b1f565b82525050565b61128c81611b1f565b82525050565b600061129d826119a0565b6112a781856119f8565b93506112b7818560208601611b64565b6112c081611cce565b840191505092915050565b60006112d6826119a0565b6112e08185611a09565b93506112f0818560208601611b64565b6112f981611cce565b840191505092915050565b6000611311602c83611a09565b91507f46756e6473206861766520616c7265616479206265656e2073656e7420746f2060008301527f74686520626f72726f77657200000000000000000000000000000000000000006020830152604082019050919050565b6000611377602383611a09565b91507f46756e6472616973696e6720666f722074686973206c6f616e2068617320656e60008301527f64656400000000000000000000000000000000000000000000000000000000006020830152604082019050919050565b60006113dd602483611a09565b91507f4f6e6c792074686520626f72726f7765722063616e207265706179207468652060008301527f6c6f616e000000000000000000000000000000000000000000000000000000006020830152604082019050919050565b6000611443602083611a09565b91507f4578636565647320746865207265717569726564206c6f616e20616d6f756e746000830152602082019050919050565b6000611483601a83611a09565b91507f496e636f72726563742072657061796d656e7420616d6f756e740000000000006000830152602082019050919050565b60006114c3601383611a09565b91507f4c6f616e20616c726561647920726570616964000000000000000000000000006000830152602082019050919050565b6000611503602983611a09565b91507f4f6e6c792074686520626f72726f7765722063616e20656e642074686520667560008301527f6e6472616973696e6700000000000000000000000000000000000000000000006020830152604082019050919050565b6040820160008201516115726000850182611116565b506020820151611585602085018261166c565b50505050565b6000610140830160008301516115a46000860182611116565b5060208301516115b7602086018261166c565b5060408301516115ca604086018261166c565b5060608301516115dd6060860182611274565b5060808301516115f06080860182611274565b5060a083015161160360a0860182611274565b5060c083015161161660c086018261166c565b5060e083015184820360e086015261162e8282611292565b91505061010083015184820361010086015261164a8282611143565b91505061012083015161166161012086018261166c565b508091505092915050565b61167581611b4b565b82525050565b61168481611b4b565b82525050565b6000610120820190506116a0600083018c611125565b6116ad602083018b61167b565b6116ba604083018a61167b565b6116c76060830189611283565b6116d46080830188611283565b6116e160a0830187611283565b6116ee60c083018661167b565b81810360e083015261170081856112cb565b905061171061010083018461167b565b9a9950505050505050505050565b60006060820190506117336000830186611134565b611740602083018561167b565b61174d604083018461167b565b949350505050565b600060808201905061176a6000830187611134565b611777602083018661167b565b611784604083018561167b565b818103606083015261179681846112cb565b905095945050505050565b600060208201905081810360008301526117bb81846111a1565b905092915050565b600060208201905081810360008301526117dd81846111ff565b905092915050565b600060208201905081810360008301526117fe81611304565b9050919050565b6000602082019050818103600083015261181e8161136a565b9050919050565b6000602082019050818103600083015261183e816113d0565b9050919050565b6000602082019050818103600083015261185e81611436565b9050919050565b6000602082019050818103600083015261187e81611476565b9050919050565b6000602082019050818103600083015261189e816114b6565b9050919050565b600060208201905081810360008301526118be816114f6565b9050919050565b60006020820190506118da600083018461167b565b92915050565b60006040820190506118f5600083018561167b565b611902602083018461167b565b9392505050565b6000604051905081810181811067ffffffffffffffff821117156119305761192f611c9f565b5b8060405250919050565b600067ffffffffffffffff82111561195557611954611c9f565b5b601f19601f8301169050602081019050919050565b6000819050602082019050919050565b6000819050602082019050919050565b600081519050919050565b600081519050919050565b600081519050919050565b6000602082019050919050565b6000602082019050919050565b600082825260208201905092915050565b600082825260208201905092915050565b600082825260208201905092915050565b600082825260208201905092915050565b600082825260208201905092915050565b6000611a2582611b4b565b9150611a3083611b4b565b9250827fffffffffffffffffffffffffffffffffffffffffffffffffffffffffffffffff03821115611a6557611a64611c12565b5b828201905092915050565b6000611a7b82611b4b565b9150611a8683611b4b565b925082611a9657611a95611c41565b5b828204905092915050565b6000611aac82611b4b565b9150611ab783611b4b565b9250817fffffffffffffffffffffffffffffffffffffffffffffffffffffffffffffffff0483118215151615611af057611aef611c12565b5b828202905092915050565b6000611b0682611b2b565b9050919050565b6000611b1882611b2b565b9050919050565b60008115159050919050565b600073ffffffffffffffffffffffffffffffffffffffff82169050919050565b6000819050919050565b82818337600083830152505050565b60005b83811015611b82578082015181840152602081019050611b67565b83811115611b91576000848401525b50505050565b60006002820490506001821680611baf57607f821691505b60208210811415611bc357611bc2611c70565b5b50919050565b6000611bd482611b4b565b91507fffffffffffffffffffffffffffffffffffffffffffffffffffffffffffffffff821415611c0757611c06611c12565b5b600182019050919050565b7f4e487b7100000000000000000000000000000000000000000000000000000000600052601160045260246000fd5b7f4e487b7100000000000000000000000000000000000000000000000000000000600052601260045260246000fd5b7f4e487b7100000000000000000000000000000000000000000000000000000000600052602260045260246000fd5b7f4e487b7100000000000000000000000000000000000000000000000000000000600052604160045260246000fd5b6000601f19601f8301169050919050565b611ce881611b4b565b8114611cf357600080fd5b5056fea2646970667358221220ade4faeae5a35d1b80321531c2017898ffcc5ff9615ebe7e07f74e08fc654f3864736f6c63430008000033",
    "immutableReferences": {},
    "source": "// SPDX-License-Identifier: MIT\r\npragma solidity ^0.8.0;\r\n\r\ncontract MicroLending {\r\n\r\n    struct Lender {\r\n        address payable lenderAddress;\r\n        uint amountFunded;\r\n    }\r\n\r\n    struct Loan {\r\n        address payable borrower;\r\n        uint amountRequested;\r\n        uint amountFunded;\r\n       \r\n        bool fundraisingEnded;\r\n        bool isFunded;\r\n        bool isRepaid;\r\n        uint repaymentAmount;  // This will store principal + interest\r\n        string description;\r\n        Lender[] lenders;\r\n         uint fundraisingDeadline;\r\n    }\r\n\r\n    Loan[] public loans;\r\n\r\n    uint constant INTEREST_RATE = 5;  // Constant interest rate of 5%\r\n\r\n    event LoanRequested(address borrower, uint amount, uint deadline, string description);\r\n    event LoanFunded(address lender, uint loanId, uint amountFunded);\r\n    event LoanSentToBorrower(uint loanId, uint amount);\r\n    event LoanRepaid(uint loanId);\r\n\r\n    function requestLoan(uint _amount, uint _durationInDays, string memory _description) public {\r\n        Loan storage newLoan = loans.push();\r\n        newLoan.borrower = payable(msg.sender);\r\n        newLoan.amountRequested = _amount ;  // Convert ether to wei\r\n        newLoan.fundraisingDeadline = block.timestamp + (_durationInDays * 1 days);\r\n        newLoan.description = _description;\r\n        newLoan.repaymentAmount = (newLoan.amountRequested * (100 + INTEREST_RATE)) / 100;\r\n        emit LoanRequested(msg.sender, newLoan.amountRequested, newLoan.fundraisingDeadline, _description);\r\n    }\r\n\r\n    function viewRepaymentAmount(uint _loanId) public view returns (uint) {\r\n        return loans[_loanId].repaymentAmount;\r\n    }\r\n    function fundLoan(uint _loanId) public payable {\r\n        Loan storage loan = loans[_loanId];\r\n        require(block.timestamp <= loan.fundraisingDeadline, \"Fundraising for this loan has ended\");\r\n        require(loan.amountFunded + msg.value <= loan.amountRequested, \"Exceeds the required loan amount\");\r\n\r\n        loan.lenders.push(Lender({\r\n            lenderAddress: payable(msg.sender),\r\n            amountFunded: msg.value\r\n        }));\r\n\r\n     \r\n        loan.amountFunded += msg.value;\r\n\r\n    if (loan.amountFunded == loan.amountRequested) {\r\n        loan.isFunded = true;  // Update the isFunded flag when amountFunded matches amountRequested\r\n    }\r\n\r\n        emit LoanFunded(msg.sender, _loanId, msg.value);\r\n    }\r\n\r\n   function endFundraising(uint _loanId) public {\r\n    Loan storage loan = loans[_loanId];\r\n    require(msg.sender == loan.borrower, \"Only the borrower can end the fundraising\");\r\n    // require(block.timestamp > loan.fundraisingDeadline, \"Fundraising for this loan is still ongoing\");\r\n    require(!loan.isFunded, \"Funds have already been sent to the borrower\");\r\n    // require(loan.amountFunded == loan.amountRequested, \"The loan is not fully funded\"); \r\n loan.fundraisingEnded = true; \r\n    loan.borrower.transfer(loan.amountFunded);\r\n    loan.isFunded = true;\r\n\r\n    emit LoanSentToBorrower(_loanId, loan.amountFunded);\r\n}\r\n   function repayLoan(uint _loanId) public payable {\r\n    Loan storage loan = loans[_loanId];\r\n    require(msg.sender == loan.borrower, \"Only the borrower can repay the loan\");\r\n    // require(loan.isFunded || loan.fundraisingEnded, \"Loan is not funded yet or fundraising was not ended by the borrower\");\r\n    require(!loan.isRepaid, \"Loan already repaid\");\r\n    require(msg.value == loan.repaymentAmount, \"Incorrect repayment amount\"); \r\n\r\n    uint principal = loan.amountRequested;\r\n    uint totalRepay = loan.repaymentAmount;\r\n\r\n    for (uint i = 0; i < loan.lenders.length; i++) {\r\n        Lender storage lender = loan.lenders[i];\r\n        uint lenderShare = lender.amountFunded * totalRepay / principal;\r\n        lender.lenderAddress.transfer(lenderShare);\r\n    }\r\n\r\n    loan.isRepaid = true;\r\n\r\n    emit LoanRepaid(_loanId);\r\n}\r\n\r\nfunction getLendersForLoan(uint _loanId) public view returns (Lender[] memory) {\r\n    return loans[_loanId].lenders;\r\n}\r\nfunction getAllLoans() public view returns (Loan[] memory) {\r\n    return loans;\r\n}\r\n}\r\n",
    "sourcePath": "C:\\Users\\prama\\Desktop\\micro_loans\\backend\\contracts\\MicroLending.sol",
    "compiler": {
        "name": "solc",
        "version": "0.8.0+commit.c7dfd78e.Emscripten.clang"
    },
    "schemaVersion": "3.4.16",
    "updatedAt": "2023-10-15T03:20:10.516Z",
    "networkType": "ethereum",
    "devdoc": {
        "kind": "dev",
        "methods": {},
        "version": 1
    },
    "userdoc": {
        "kind": "user",
        "methods": {},
        "version": 1
    }
}