{
  "contractName": "MicroLending",
  "abi": [
    {
      "anonymous": false,
      "inputs": [
        {
          "indexed": false,
          "internalType": "address",
          "name": "lender",
          "type": "address"
        },
        {
          "indexed": false,
          "internalType": "uint256",
          "name": "loanId",
          "type": "uint256"
        },
        {
          "indexed": false,
          "internalType": "uint256",
          "name": "amountFunded",
          "type": "uint256"
        }
      ],
      "name": "LoanFunded",
      "type": "event"
    },
    {
      "anonymous": false,
      "inputs": [
        {
          "indexed": false,
          "internalType": "uint256",
          "name": "loanId",
          "type": "uint256"
        }
      ],
      "name": "LoanRepaid",
      "type": "event"
    },
    {
      "anonymous": false,
      "inputs": [
        {
          "indexed": false,
          "internalType": "address",
          "name": "borrower",
          "type": "address"
        },
        {
          "indexed": false,
          "internalType": "uint256",
          "name": "amount",
          "type": "uint256"
        },
        {
          "indexed": false,
          "internalType": "uint256",
          "name": "deadline",
          "type": "uint256"
        },
        {
          "indexed": false,
          "internalType": "string",
          "name": "description",
          "type": "string"
        }
      ],
      "name": "LoanRequested",
      "type": "event"
    },
    {
      "anonymous": false,
      "inputs": [
        {
          "indexed": false,
          "internalType": "uint256",
          "name": "loanId",
          "type": "uint256"
        },
        {
          "indexed": false,
          "internalType": "uint256",
          "name": "amount",
          "type": "uint256"
        }
      ],
      "name": "LoanSentToBorrower",
      "type": "event"
    },
    {
      "inputs": [
        {
          "internalType": "uint256",
          "name": "",
          "type": "uint256"
        }
      ],
      "name": "loans",
      "outputs": [
        {
          "internalType": "address payable",
          "name": "borrower",
          "type": "address"
        },
        {
          "internalType": "uint256",
          "name": "amountRequested",
          "type": "uint256"
        },
        {
          "internalType": "uint256",
          "name": "amountFunded",
          "type": "uint256"
        },
        {
          "internalType": "uint256",
          "name": "fundraisingDeadline",
          "type": "uint256"
        },
        {
          "internalType": "bool",
          "name": "isFunded",
          "type": "bool"
        },
        {
          "internalType": "bool",
          "name": "isRepaid",
          "type": "bool"
        },
        {
          "internalType": "uint256",
          "name": "repaymentAmount",
          "type": "uint256"
        },
        {
          "internalType": "string",
          "name": "description",
          "type": "string"
        }
      ],
      "stateMutability": "view",
      "type": "function",
      "constant": true
    },
    {
      "inputs": [
        {
          "internalType": "uint256",
          "name": "_amount",
          "type": "uint256"
        },
        {
          "internalType": "uint256",
          "name": "_durationInDays",
          "type": "uint256"
        },
        {
          "internalType": "string",
          "name": "_description",
          "type": "string"
        }
      ],
      "name": "requestLoan",
      "outputs": [],
      "stateMutability": "nonpayable",
      "type": "function"
    },
    {
      "inputs": [
        {
          "internalType": "uint256",
          "name": "_loanId",
          "type": "uint256"
        }
      ],
      "name": "viewRepaymentAmount",
      "outputs": [
        {
          "internalType": "uint256",
          "name": "",
          "type": "uint256"
        }
      ],
      "stateMutability": "view",
      "type": "function",
      "constant": true
    },
    {
      "inputs": [
        {
          "internalType": "uint256",
          "name": "_loanId",
          "type": "uint256"
        }
      ],
      "name": "fundLoan",
      "outputs": [],
      "stateMutability": "payable",
      "type": "function",
      "payable": true
    },
    {
      "inputs": [
        {
          "internalType": "uint256",
          "name": "_loanId",
          "type": "uint256"
        }
      ],
      "name": "endFundraising",
      "outputs": [],
      "stateMutability": "nonpayable",
      "type": "function"
    },
    {
      "inputs": [
        {
          "internalType": "uint256",
          "name": "_loanId",
          "type": "uint256"
        }
      ],
      "name": "repayLoan",
      "outputs": [],
      "stateMutability": "payable",
      "type": "function",
      "payable": true
    },
    {
      "inputs": [
        {
          "internalType": "uint256",
          "name": "_loanId",
          "type": "uint256"
        }
      ],
      "name": "getLendersForLoan",
      "outputs": [
        {
          "components": [
            {
              "internalType": "address payable",
              "name": "lenderAddress",
              "type": "address"
            },
            {
              "internalType": "uint256",
              "name": "amountFunded",
              "type": "uint256"
            }
          ],
          "internalType": "struct MicroLending.Lender[]",
          "name": "",
          "type": "tuple[]"
        }
      ],
      "stateMutability": "view",
      "type": "function",
      "constant": true
    },
    {
      "inputs": [],
      "name": "getAllLoans",
      "outputs": [
        {
          "components": [
            {
              "internalType": "address payable",
              "name": "borrower",
              "type": "address"
            },
            {
              "internalType": "uint256",
              "name": "amountRequested",
              "type": "uint256"
            },
            {
              "internalType": "uint256",
              "name": "amountFunded",
              "type": "uint256"
            },
            {
              "internalType": "uint256",
              "name": "fundraisingDeadline",
              "type": "uint256"
            },
            {
              "internalType": "bool",
              "name": "isFunded",
              "type": "bool"
            },
            {
              "internalType": "bool",
              "name": "isRepaid",
              "type": "bool"
            },
            {
              "internalType": "uint256",
              "name": "repaymentAmount",
              "type": "uint256"
            },
            {
              "internalType": "string",
              "name": "description",
              "type": "string"
            },
            {
              "components": [
                {
                  "internalType": "address payable",
                  "name": "lenderAddress",
                  "type": "address"
                },
                {
                  "internalType": "uint256",
                  "name": "amountFunded",
                  "type": "uint256"
                }
              ],
              "internalType": "struct MicroLending.Lender[]",
              "name": "lenders",
              "type": "tuple[]"
            }
          ],
          "internalType": "struct MicroLending.Loan[]",
          "name": "",
          "type": "tuple[]"
        }
      ],
      "stateMutability": "view",
      "type": "function",
      "constant": true
    }
  ],
  "bytecode": "0x608060405234801561001057600080fd5b50611de9806100206000396000f3fe60806040526004361061007b5760003560e01c8063d3602dc61161004e578063d3602dc61461010c578063d5b6836814610135578063e1ec3c6814610172578063fd8a5e9a146101b65761007b565b80630473e26014610080578063846b909a146100a9578063a5bfd16a146100c5578063ab7b1c89146100f0575b600080fd5b34801561008c57600080fd5b506100a760048036038101906100a2919061107b565b6101f3565b005b6100c360048036038101906100be919061107b565b610439565b005b3480156100d157600080fd5b506100da610626565b6040516100e79190611840565b60405180910390f35b61010a6004803603810190610105919061107b565b61088b565b005b34801561011857600080fd5b50610133600480360381019061012e91906110a4565b610bbd565b005b34801561014157600080fd5b5061015c6004803603810190610157919061107b565b610ce3565b6040516101699190611982565b60405180910390f35b34801561017e57600080fd5b506101996004803603810190610194919061107b565b610d37565b6040516101ad989796959493929190611716565b60405180910390f35b3480156101c257600080fd5b506101dd60048036038101906101d8919061107b565b610e51565b6040516101ea919061181e565b60405180910390f35b600080828154811061022e577f4e487b7100000000000000000000000000000000000000000000000000000000600052603260045260246000fd5b906000526020600020906008020190508060000160009054906101000a900473ffffffffffffffffffffffffffffffffffffffff1673ffffffffffffffffffffffffffffffffffffffff163373ffffffffffffffffffffffffffffffffffffffff16146102d0576040517f08c379a00000000000000000000000000000000000000000000000000000000081526004016102c790611962565b60405180910390fd5b8060040160009054906101000a900460ff1615610322576040517f08c379a000000000000000000000000000000000000000000000000000000000815260040161031990611862565b60405180910390fd5b806001015481600201541461036c576040517f08c379a000000000000000000000000000000000000000000000000000000000815260040161036390611902565b60405180910390fd5b8060000160009054906101000a900473ffffffffffffffffffffffffffffffffffffffff1673ffffffffffffffffffffffffffffffffffffffff166108fc82600201549081150290604051600060405180830381858888f193505050501580156103da573d6000803e3d6000fd5b5060018160040160006101000a81548160ff0219169083151502179055507fc4115ead3b5e642248f8bf4f8e001556161d59f98c392fcaf2e917d563b8eeed82826002015460405161042d92919061199d565b60405180910390a15050565b6000808281548110610474577f4e487b7100000000000000000000000000000000000000000000000000000000600052603260045260246000fd5b9060005260206000209060080201905080600301544211156104cb576040517f08c379a00000000000000000000000000000000000000000000000000000000081526004016104c2906118a2565b60405180910390fd5b80600101543482600201546104e09190611ad7565b1115610521576040517f08c379a0000000000000000000000000000000000000000000000000000000008152600401610518906118e2565b60405180910390fd5b8060070160405180604001604052803373ffffffffffffffffffffffffffffffffffffffff16815260200134815250908060018154018082558091505060019003906000526020600020906002020160009091909190915060008201518160000160006101000a81548173ffffffffffffffffffffffffffffffffffffffff021916908373ffffffffffffffffffffffffffffffffffffffff160217905550602082015181600101555050348160020160008282546105e09190611ad7565b925050819055507f6929ef1beec776d26744c851d4e8c8d009ac33388f93115c125a631c0842056b33833460405161061a9392919061179b565b60405180910390a15050565b60606000805480602002602001604051908101604052809291908181526020016000905b828210156108825783829060005260206000209060080201604051806101200160405290816000820160009054906101000a900473ffffffffffffffffffffffffffffffffffffffff1673ffffffffffffffffffffffffffffffffffffffff1673ffffffffffffffffffffffffffffffffffffffff1681526020016001820154815260200160028201548152602001600382015481526020016004820160009054906101000a900460ff161515151581526020016004820160019054906101000a900460ff161515151581526020016005820154815260200160068201805461073290611c54565b80601f016020809104026020016040519081016040528092919081815260200182805461075e90611c54565b80156107ab5780601f10610780576101008083540402835291602001916107ab565b820191906000526020600020905b81548152906001019060200180831161078e57829003601f168201915b5050505050815260200160078201805480602002602001604051908101604052809291908181526020016000905b8282101561086b57838290600052602060002090600202016040518060400160405290816000820160009054906101000a900473ffffffffffffffffffffffffffffffffffffffff1673ffffffffffffffffffffffffffffffffffffffff1673ffffffffffffffffffffffffffffffffffffffff168152602001600182015481525050815260200190600101906107d9565b50505050815250508152602001906001019061064a565b50505050905090565b60008082815481106108c6577f4e487b7100000000000000000000000000000000000000000000000000000000600052603260045260246000fd5b906000526020600020906008020190508060000160009054906101000a900473ffffffffffffffffffffffffffffffffffffffff1673ffffffffffffffffffffffffffffffffffffffff163373ffffffffffffffffffffffffffffffffffffffff1614610968576040517f08c379a000000000000000000000000000000000000000000000000000000000815260040161095f906118c2565b60405180910390fd5b8060040160009054906101000a900460ff166109b9576040517f08c379a00000000000000000000000000000000000000000000000000000000081526004016109b090611882565b60405180910390fd5b8060040160019054906101000a900460ff1615610a0b576040517f08c379a0000000000000000000000000000000000000000000000000000000008152600401610a0290611942565b60405180910390fd5b80600501543414610a51576040517f08c379a0000000000000000000000000000000000000000000000000000000008152600401610a4890611922565b60405180910390fd5b60008160010154905060008260050154905060005b8360070180549050811015610b62576000846007018281548110610ab3577f4e487b7100000000000000000000000000000000000000000000000000000000600052603260045260246000fd5b90600052602060002090600202019050600084848360010154610ad69190611b5e565b610ae09190611b2d565b90508160000160009054906101000a900473ffffffffffffffffffffffffffffffffffffffff1673ffffffffffffffffffffffffffffffffffffffff166108fc829081150290604051600060405180830381858888f19350505050158015610b4c573d6000803e3d6000fd5b5050508080610b5a90611c86565b915050610a66565b5060018360040160016101000a81548160ff0219169083151502179055507f9a7851747cd7ffb3fe0a32caf3da48b31f27cebe131267051640f8b72fc4718684604051610baf9190611982565b60405180910390a150505050565b6000806001816001815401808255809150500390600052602060002090600802019050338160000160006101000a81548173ffffffffffffffffffffffffffffffffffffffff021916908373ffffffffffffffffffffffffffffffffffffffff1602179055508381600101819055506201518083610c3b9190611b5e565b42610c469190611ad7565b816003018190555081816006019080519060200190610c66929190610f5b565b50606460056064610c779190611ad7565b8260010154610c869190611b5e565b610c909190611b2d565b81600501819055507f8d0f28b13b81d6cb2daa1e2558ffe46f372e0a47d938d38fa339bd67eff00829338260010154836003015485604051610cd594939291906117d2565b60405180910390a150505050565b6000808281548110610d1e577f4e487b7100000000000000000000000000000000000000000000000000000000600052603260045260246000fd5b9060005260206000209060080201600501549050919050565b60008181548110610d4757600080fd5b90600052602060002090600802016000915090508060000160009054906101000a900473ffffffffffffffffffffffffffffffffffffffff16908060010154908060020154908060030154908060040160009054906101000a900460ff16908060040160019054906101000a900460ff1690806005015490806006018054610dce90611c54565b80601f0160208091040260200160405190810160405280929190818152602001828054610dfa90611c54565b8015610e475780601f10610e1c57610100808354040283529160200191610e47565b820191906000526020600020905b815481529060010190602001808311610e2a57829003601f168201915b5050505050905088565b606060008281548110610e8d577f4e487b7100000000000000000000000000000000000000000000000000000000600052603260045260246000fd5b9060005260206000209060080201600701805480602002602001604051908101604052809291908181526020016000905b82821015610f5057838290600052602060002090600202016040518060400160405290816000820160009054906101000a900473ffffffffffffffffffffffffffffffffffffffff1673ffffffffffffffffffffffffffffffffffffffff1673ffffffffffffffffffffffffffffffffffffffff16815260200160018201548152505081526020019060010190610ebe565b505050509050919050565b828054610f6790611c54565b90600052602060002090601f016020900481019282610f895760008555610fd0565b82601f10610fa257805160ff1916838001178555610fd0565b82800160010185558215610fd0579182015b82811115610fcf578251825591602001919060010190610fb4565b5b509050610fdd9190610fe1565b5090565b5b80821115610ffa576000816000905550600101610fe2565b5090565b600061101161100c846119f7565b6119c6565b90508281526020810184848401111561102957600080fd5b611034848285611c12565b509392505050565b600082601f83011261104d57600080fd5b813561105d848260208601610ffe565b91505092915050565b60008135905061107581611d9c565b92915050565b60006020828403121561108d57600080fd5b600061109b84828501611066565b91505092915050565b6000806000606084860312156110b957600080fd5b60006110c786828701611066565b93505060206110d886828701611066565b925050604084013567ffffffffffffffff8111156110f557600080fd5b6111018682870161103c565b9150509250925092565b600061111783836115fd565b60408301905092915050565b600061112f838361162c565b905092915050565b61114081611bca565b82525050565b61114f81611bca565b82525050565b61115e81611bb8565b82525050565b600061116f82611a47565b6111798185611a82565b935061118483611a27565b8060005b838110156111b557815161119c888261110b565b97506111a783611a68565b925050600181019050611188565b5085935050505092915050565b60006111cd82611a47565b6111d78185611a93565b93506111e283611a27565b8060005b838110156112135781516111fa888261110b565b975061120583611a68565b9250506001810190506111e6565b5085935050505092915050565b600061122b82611a52565b6112358185611aa4565b93508360208202850161124785611a37565b8060005b8581101561128357848403895281516112648582611123565b945061126f83611a75565b925060208a0199505060018101905061124b565b50829750879550505050505092915050565b61129e81611bdc565b82525050565b6112ad81611bdc565b82525050565b60006112be82611a5d565b6112c88185611ab5565b93506112d8818560208601611c21565b6112e181611d8b565b840191505092915050565b60006112f782611a5d565b6113018185611ac6565b9350611311818560208601611c21565b61131a81611d8b565b840191505092915050565b6000611332602c83611ac6565b91507f46756e6473206861766520616c7265616479206265656e2073656e7420746f2060008301527f74686520626f72726f77657200000000000000000000000000000000000000006020830152604082019050919050565b6000611398601683611ac6565b91507f4c6f616e206973206e6f742066756e64656420796574000000000000000000006000830152602082019050919050565b60006113d8602383611ac6565b91507f46756e6472616973696e6720666f722074686973206c6f616e2068617320656e60008301527f64656400000000000000000000000000000000000000000000000000000000006020830152604082019050919050565b600061143e602483611ac6565b91507f4f6e6c792074686520626f72726f7765722063616e207265706179207468652060008301527f6c6f616e000000000000000000000000000000000000000000000000000000006020830152604082019050919050565b60006114a4602083611ac6565b91507f4578636565647320746865207265717569726564206c6f616e20616d6f756e746000830152602082019050919050565b60006114e4601c83611ac6565b91507f546865206c6f616e206973206e6f742066756c6c792066756e646564000000006000830152602082019050919050565b6000611524601a83611ac6565b91507f496e636f72726563742072657061796d656e7420616d6f756e740000000000006000830152602082019050919050565b6000611564601383611ac6565b91507f4c6f616e20616c726561647920726570616964000000000000000000000000006000830152602082019050919050565b60006115a4602983611ac6565b91507f4f6e6c792074686520626f72726f7765722063616e20656e642074686520667560008301527f6e6472616973696e6700000000000000000000000000000000000000000000006020830152604082019050919050565b6040820160008201516116136000850182611137565b50602082015161162660208501826116f8565b50505050565b6000610120830160008301516116456000860182611137565b50602083015161165860208601826116f8565b50604083015161166b60408601826116f8565b50606083015161167e60608601826116f8565b5060808301516116916080860182611295565b5060a08301516116a460a0860182611295565b5060c08301516116b760c08601826116f8565b5060e083015184820360e08601526116cf82826112b3565b9150506101008301518482036101008601526116eb8282611164565b9150508091505092915050565b61170181611c08565b82525050565b61171081611c08565b82525050565b60006101008201905061172c600083018b611146565b611739602083018a611707565b6117466040830189611707565b6117536060830188611707565b61176060808301876112a4565b61176d60a08301866112a4565b61177a60c0830185611707565b81810360e083015261178c81846112ec565b90509998505050505050505050565b60006060820190506117b06000830186611155565b6117bd6020830185611707565b6117ca6040830184611707565b949350505050565b60006080820190506117e76000830187611155565b6117f46020830186611707565b6118016040830185611707565b818103606083015261181381846112ec565b905095945050505050565b6000602082019050818103600083015261183881846111c2565b905092915050565b6000602082019050818103600083015261185a8184611220565b905092915050565b6000602082019050818103600083015261187b81611325565b9050919050565b6000602082019050818103600083015261189b8161138b565b9050919050565b600060208201905081810360008301526118bb816113cb565b9050919050565b600060208201905081810360008301526118db81611431565b9050919050565b600060208201905081810360008301526118fb81611497565b9050919050565b6000602082019050818103600083015261191b816114d7565b9050919050565b6000602082019050818103600083015261193b81611517565b9050919050565b6000602082019050818103600083015261195b81611557565b9050919050565b6000602082019050818103600083015261197b81611597565b9050919050565b60006020820190506119976000830184611707565b92915050565b60006040820190506119b26000830185611707565b6119bf6020830184611707565b9392505050565b6000604051905081810181811067ffffffffffffffff821117156119ed576119ec611d5c565b5b8060405250919050565b600067ffffffffffffffff821115611a1257611a11611d5c565b5b601f19601f8301169050602081019050919050565b6000819050602082019050919050565b6000819050602082019050919050565b600081519050919050565b600081519050919050565b600081519050919050565b6000602082019050919050565b6000602082019050919050565b600082825260208201905092915050565b600082825260208201905092915050565b600082825260208201905092915050565b600082825260208201905092915050565b600082825260208201905092915050565b6000611ae282611c08565b9150611aed83611c08565b9250827fffffffffffffffffffffffffffffffffffffffffffffffffffffffffffffffff03821115611b2257611b21611ccf565b5b828201905092915050565b6000611b3882611c08565b9150611b4383611c08565b925082611b5357611b52611cfe565b5b828204905092915050565b6000611b6982611c08565b9150611b7483611c08565b9250817fffffffffffffffffffffffffffffffffffffffffffffffffffffffffffffffff0483118215151615611bad57611bac611ccf565b5b828202905092915050565b6000611bc382611be8565b9050919050565b6000611bd582611be8565b9050919050565b60008115159050919050565b600073ffffffffffffffffffffffffffffffffffffffff82169050919050565b6000819050919050565b82818337600083830152505050565b60005b83811015611c3f578082015181840152602081019050611c24565b83811115611c4e576000848401525b50505050565b60006002820490506001821680611c6c57607f821691505b60208210811415611c8057611c7f611d2d565b5b50919050565b6000611c9182611c08565b91507fffffffffffffffffffffffffffffffffffffffffffffffffffffffffffffffff821415611cc457611cc3611ccf565b5b600182019050919050565b7f4e487b7100000000000000000000000000000000000000000000000000000000600052601160045260246000fd5b7f4e487b7100000000000000000000000000000000000000000000000000000000600052601260045260246000fd5b7f4e487b7100000000000000000000000000000000000000000000000000000000600052602260045260246000fd5b7f4e487b7100000000000000000000000000000000000000000000000000000000600052604160045260246000fd5b6000601f19601f8301169050919050565b611da581611c08565b8114611db057600080fd5b5056fea2646970667358221220eb8797b7e8276d2602b027f0665aac9432185f04ddc1dced81786a6572b48e3264736f6c63430008000033",
  "immutableReferences": {},
  "source": "// SPDX-License-Identifier: MIT\r\npragma solidity ^0.8.0;\r\n\r\ncontract MicroLending {\r\n\r\n    struct Lender {\r\n        address payable lenderAddress;\r\n        uint amountFunded;\r\n    }\r\n\r\n    struct Loan {\r\n        address payable borrower;\r\n        uint amountRequested;\r\n        uint amountFunded;\r\n        uint fundraisingDeadline;\r\n        bool isFunded;\r\n        bool isRepaid;\r\n        uint repaymentAmount;  // This will store principal + interest\r\n        string description;\r\n        Lender[] lenders;\r\n    }\r\n\r\n    Loan[] public loans;\r\n\r\n    uint constant INTEREST_RATE = 5;  // Constant interest rate of 5%\r\n\r\n    event LoanRequested(address borrower, uint amount, uint deadline, string description);\r\n    event LoanFunded(address lender, uint loanId, uint amountFunded);\r\n    event LoanSentToBorrower(uint loanId, uint amount);\r\n    event LoanRepaid(uint loanId);\r\n\r\n    function requestLoan(uint _amount, uint _durationInDays, string memory _description) public {\r\n        Loan storage newLoan = loans.push();\r\n        newLoan.borrower = payable(msg.sender);\r\n        newLoan.amountRequested = _amount ;  // Convert ether to wei\r\n        newLoan.fundraisingDeadline = block.timestamp + (_durationInDays * 1 days);\r\n        newLoan.description = _description;\r\n        newLoan.repaymentAmount = (newLoan.amountRequested * (100 + INTEREST_RATE)) / 100;\r\n        emit LoanRequested(msg.sender, newLoan.amountRequested, newLoan.fundraisingDeadline, _description);\r\n    }\r\n\r\n    function viewRepaymentAmount(uint _loanId) public view returns (uint) {\r\n        return loans[_loanId].repaymentAmount;\r\n    }\r\n    function fundLoan(uint _loanId) public payable {\r\n        Loan storage loan = loans[_loanId];\r\n        require(block.timestamp <= loan.fundraisingDeadline, \"Fundraising for this loan has ended\");\r\n        require(loan.amountFunded + msg.value <= loan.amountRequested, \"Exceeds the required loan amount\");\r\n\r\n        loan.lenders.push(Lender({\r\n            lenderAddress: payable(msg.sender),\r\n            amountFunded: msg.value\r\n        }));\r\n\r\n        loan.amountFunded += msg.value;\r\n\r\n        emit LoanFunded(msg.sender, _loanId, msg.value);\r\n    }\r\n\r\n   function endFundraising(uint _loanId) public {\r\n    Loan storage loan = loans[_loanId];\r\n    require(msg.sender == loan.borrower, \"Only the borrower can end the fundraising\");\r\n    // require(block.timestamp > loan.fundraisingDeadline, \"Fundraising for this loan is still ongoing\");\r\n    require(!loan.isFunded, \"Funds have already been sent to the borrower\");\r\n    require(loan.amountFunded == loan.amountRequested, \"The loan is not fully funded\"); \r\n\r\n    loan.borrower.transfer(loan.amountFunded);\r\n    loan.isFunded = true;\r\n\r\n    emit LoanSentToBorrower(_loanId, loan.amountFunded);\r\n}\r\n    function repayLoan(uint _loanId) public payable {\r\n    Loan storage loan = loans[_loanId];\r\n    require(msg.sender == loan.borrower, \"Only the borrower can repay the loan\");\r\n    require(loan.isFunded, \"Loan is not funded yet\");\r\n    require(!loan.isRepaid, \"Loan already repaid\");\r\n    require(msg.value == loan.repaymentAmount, \"Incorrect repayment amount\"); \r\n\r\n    uint principal = loan.amountRequested;\r\n    uint totalRepay = loan.repaymentAmount;\r\n\r\n    for (uint i = 0; i < loan.lenders.length; i++) {\r\n        Lender storage lender = loan.lenders[i];\r\n        uint lenderShare = lender.amountFunded * totalRepay / principal;\r\n        lender.lenderAddress.transfer(lenderShare);\r\n    }\r\n\r\n    loan.isRepaid = true;\r\n\r\n    emit LoanRepaid(_loanId);\r\n}\r\nfunction getLendersForLoan(uint _loanId) public view returns (Lender[] memory) {\r\n    return loans[_loanId].lenders;\r\n}\r\nfunction getAllLoans() public view returns (Loan[] memory) {\r\n    return loans;\r\n}\r\n}\r\n",
  "sourcePath": "C:\\Users\\prama\\Desktop\\micro_loans\\backend\\contracts\\MicroLending.sol",
  "compiler": {
    "name": "solc",
    "version": "0.8.0+commit.c7dfd78e.Emscripten.clang"
  },
  "schemaVersion": "3.4.16",
  "updatedAt": "2023-10-14T11:00:55.734Z",
  "networkType": "ethereum",
  "devdoc": {
    "kind": "dev",
    "methods": {},
    "version": 1
  },
  "userdoc": {
    "kind": "user",
    "methods": {},
    "version": 1
  }
}